:100152003F065B4F666D7D077F6F777C395E7971F5
:0B016E00EF1FAC0670011E4C70F62263
:0400D1008E108F11ED
:1000D500E4FBFAEA7053EBB40800504D9000E8F8E1
:1000E50028287302010002010402010C020110021A
:1000F500011802011C020124020128C2A28002D2B9
:10010500A2C2A3C2A48022C2A28002D2A2D2A3C24A
:10011500A48016C2A28002D2A2C2A3D2A4800AC21F
:10012500A28002D2A2D2A3D2A474522BF58274016A
:100135003AF583E493F580AF11AE1012016EE4F544
:0C014500800BBB00010AEB64084A7087C5
:01015100228B
:10000300750875750930C3E5099470E508941740C0
:10001300EFAF09AE081200D1E50964707004E5087A
:10002300641760030200C2750A17750B70C3E50BF2
:1000330094E8E50A940350030200C2AF0BAE0A1220
:1000430000D1E50B64E87004E50A64037062750C83
:1000530003750DE8C3E50D94F4E50C94014051AF2D
:100063000DAE0C1200D1E50DB4F437E50CB401323A
:10007300750E01750FF4C3E50F94C8E50E940040A7
:10008300218008E50F64C8450E7009AF0FAE0E124C
:1000930000D180EF74CE250FF50F74FF350EF50EEA
:1000A30080D4749C250DF50D74FF350CF50C80A4DC
:1000B300740C250BF50B74FE350AF50A0200307437
:0E00C300902509F50974E83508F508020009D2
:0300000002016298
:0C016200787FE4F6D8FD758111020003DF
:00000001FF
