:0800C600010204080804020114
:0400DC000208000016
:1000A2007F507EC31200BB7F507EC31200BB7F50C5
:0900B2007EC31200BB7F507EC327
:0B00BB00EF1FAC0670011E4C70F62217
:0C000600D2901200A2C2901200A280F45E
:030003000200CE2A
:0700CE0075080075090132FD
:030013000200D513
:0700D50075080075090032F7
:03000000020016E5
:0C001600787FE4F6D8FD75810902005DDA
:10002200020006E493A3F8E493A34003F68001F2EE
:1000320008DFF48029E493A3F85407240CC8C333DF
:10004200C4540F4420C8834004F456800146F6DFAE
:10005200E4800B01020408102040809000DCE47E62
:10006200019360BCA3FF543F30E509541FFEE493A3
:10007200A360010ECF54C025E060A840B8E493A36A
:10008200FAE493A3F8E493A3C8C582C8CAC583CA95
:10009200F0A3C8C582C8CAC583CADFE9DEE780BE4D
:0100E000001F
:00000001FF
