:0A01FF003F065B4F666D7D077F6FC2
:0B01F400EF1FAC0670011E4C70F622DD
:10000300E5086432700BF5087F941201C48E0D8FDE
:100013000EAE0DAF0E7C007D051200CC7D0E1200DE
:10002300DEAB07AA0605087C037DE81200DE74FF39
:100033002FF58274013EF583E493F5097C037DE893
:10004300AF03AE021200DE7E007F64CFCDCFCECCF5
:10005300CE1200DE74FF2FF58274013EF583E49324
:10006300F50A7C037DE8AF03AE021200DE7E007F5B
:1000730064CFCDCFCECCCE1200DE7E007F0ACFCDB3
:10008300CFCECCCE1200DE74FF2FF58274013EF585
:1000930083E493F50BAE02AF037C037DE81200DE2D
:1000A3007E007F64CFCDCFCECCCE1200DE7E007F2C
:1000B3000ACFCDCFCECCCE1200DE74FF2DF58274E5
:0800C300013CF583E493F50C08
:0100CB002212
:10013300E4FDEDC3940474809480503BED14600E91
:1001430014601314601424037016C2A28002D2A296
:10015300C2A3C2A4800AC2A28002D2A2D2A3C2A412
:10016300C374039D2409F8E6F5807F647E001201C1
:07017300F4E4F5800D80BBF0
:01017A002262
:0802090012000312013380F81A
:10017B00C2B6E4FEEEC39408748094805016EFC4AC
:10018B00131313540124FF92B4EF25E0FFC2B6D230
:04019B00B60E80E03C
:01019F00223D
:1001A000E4FFFEC2B6FDFCEF25E0FFEE33FED2B663
:1001B000C2B6A2B7E43342070DBD00010CED640CDA
:0301C0004C70E49C
:0101C3002219
:1001C400C2B6C2B512017B7F06EFD394007480944B
:1001D4008040031F80F3D2B60000C2B600001201B3
:0301E400A0D2B5F1
:0101E70022F5
:030000000201E812
:0C01E800787FE4F6D8FD75810E02020954
:1000CC00EF8DF0A4A8F0CF8CF0A428CE8DF0A42E48
:0200DC00FE2202
:1000DE00BC000BBE0029EF8DF084FFADF022E4CC06
:1000EE00F875F008EF2FFFEE33FEEC33FCEE9DECCF
:1000FE00984005FCEE9DFE0FD5F0E9E4CEFD22ED15
:10010E00F8F5F0EE8420D21CFEADF075F008EF2F5E
:10011E00FFED33FD4007985006D5F0F222C398FD4F
:05012E000FD5F0EA22EC
:00000001FF
