:10011A00C2AF1202E312026AD2AF7B007A007921DF
:10012A001201F48F41EF60F2E4FFEFC395415022D0
:10013A0074212FF8E6FEEFFDC3E5419DFD74202DE5
:10014A00F8E6FB74212FF8A60374202DF8A6060FF3
:0F015A0080D87B007A007921AD4112021E80BB54
:1002A800C0F9A4B0999282F880908883C6A1868EFE
:0702B800A3ABFFF7FBFDFE05
:03000300011000E9
:1002BF00E510045403F5102411F8E6F5A0E51090AD
:0602CF0002BB93F5C02202
:100198001200B29002A893F5119000011200CB90C2
:1001A80002A893F5129000021200CB9002A893F5D2
:0E01B800139000031200CB9002A893F51422BE
:10028A001200B2F5119000011200CBF51290000293
:0E029A001200CBF5139000031200CBF51422D6
:06021E008B428A43894473
:10022400E4FFEFC39D5018AB42AA43A9448F8275E3
:0F02340083001200CBF5993099FDC2990F80E33A
:010243002298
:10026A001202D5758920758DF3758BF3758780D247
:10027A008E759850C298C299D29CD2ACE4F55A2293
:0E02D5005389F0758CEEE4F58AD2A9C28C2212
:0300230002024492
:10024400C0E0C0D075D000C000309813C298744686
:100254002545F8A6990545758CEE758A00D28CD093
:0602640000D0D0D0E03212
:03000B000202F1FD
:0902F100C28C85455A75450032A6
:0601F4008B428A4389449E
:1001FA00E4FFEFC3955A501674462FF8E6AB42AAAD
:10020A0043A9448F827583001200F80F80E4AF5A25
:03021A00E4F55AAE
:01021D0022BE
:03000600011500E1
:0E02E30053890FE4F58B758DEED28ED2AB22CF
:03001B0002016976
:10016900C0E0C0F0C083C082C0D075D00812001EA4
:10017900AF150515C3EF94C87480948040067515B2
:0F0189000012000AD0D0D082D083D0F0D0E03264
:0702FA00C202C201C2002292
:1001C600E5B0F4540FFF700D300204D2018002C274
:1001D60001C202800B200204D2018002C201D202B7
:0D01E60030010AC2013002038F1622D20040
:0101F30022E9
:0B000E00300005C200AF16227F002268
:03001E000202BF1C
:01000A0022D3
:03000000020026D5
:0C002600787FE4F6D8FD75815A02006D69
:1000B200BB010689828A83E0225002E722BBFE024C
:0900C200E32289828A83E493227F
:1000CB00BB010CE58229F582E5833AF583E02250EA
:1000DB0006E92582F8E622BBFE06E92582F8E22234
:0D00EB00E58229F582E5833AF583E493224E
:1000F800F8BB010DE58229F582E5833AF583E8F03E
:10010800225006E92582C8F622BBFE05E92582C8E9
:02011800F222D1
:1000320002011AE493A3F8E493A34003F68001F2C9
:1000420008DFF48029E493A3F85407240CC8C333CF
:10005200C4540F4420C8834004F456800146F6DF9E
:10006200E4800B0102040810204080900003E47E2B
:10007200019360BCA3FF543F30E509541FFEE49393
:10008200A360010ECF54C025E060A840B8E493A35A
:10009200FAE493A3F8E493A3C8C582C8CAC583CA85
:1000A200F0A3C8C582C8CAC583CADFE9DEE780BE3D
:0100090000F6
:00000001FF
