:0101100022CC
:10003F00C2A58F807F017E00114FD2A77F057E0062
:10004F00D3EF9400EE9400400F7DC77C01DCFEDD02
:08005F00FAEF1F70EB1E80E8B0
:010067002276
:0A00F300C2A7C2A612003FC2A72256
:0A00FD00C2A7D2A612003FC2A7223C
:1000A5007F3811F37F0C11F37F0611F37F0111F3F4
:0400B5007F8001F354
:0400CD0011D1D2A1DA
:0800D1007F017E02DEFEDFFA72
:0100D9002204
:0D00DA00D2A01200CDC2A011D1C2A101D14F
:09010700C2A01200CDD2A001D16A
:02000300AD0747
:10000500E4FBFAEDC4131313540124FF92A0ED256C
:10001500E0FD11CDC2A111D10BBB08E7D2A011D1D2
:10002500D2A130A00E0AEAD394C840F6C2A111D1DC
:090035007F0022C2A111D17F015C
:01003E00229F
:10006800E4FDFCD2A011D1D2A111D1EC25E0FCA273
:10007800A0E433420411D1C2A111D10DBD08E8AFEB
:010088000473
:010089002254
:1000B900AC05A90711DA7FA01103AF011103AF0441
:0400C90011032107F7
:02008A00AC07C1
:10008C0011DA7FA01103AF04110311DA7FA1110360
:08009C001168AD073107AF0543
:0100A4002239
:030000000200E714
:0C00E700787FE4F6D8FD75810702011057
:00000001FF
