:04001E0002080000D4
:1000B200759850438E40538EFE53890F758BE075B1
:0700C2008DFEC2ABD28E22BD
:0900C9001200B2D2AFD2AC80FEED
:03002300020003D5
:10000300C0E0309813C2980509E50970020508207D
:0B001300E004D2CD8002C2CDD0E0326C
:03000000020026D5
:0C002600787FE4F6D8FD75810902006DBA
:100032000200C9E493A3F8E493A34003F68001F21B
:1000420008DFF48029E493A3F85407240CC8C333CF
:10005200C4540F4420C8834004F456800146F6DF9E
:10006200E4800B010204081020408090001EE47E10
:10007200019360BCA3FF543F30E509541FFEE49393
:10008200A360010ECF54C025E060A840B8E493A35A
:10009200FAE493A3F8E493A3C8C582C8CAC583CA85
:1000A200F0A3C8C582C8CAC583CADFE9DEE780BE3D
:0100220000DD
:00000001FF
