:1007A20042002000004B00223031323334353637DC
:0307B20038392EA5
:0B045C00E0FCA3E0FDA3E0FEA3E0FF36
:0604670090002D1204506C
:10046D00E4FFFEFDFC90002DE0F8A3E0F9A3E0FA17
:10047D00A3E0FB1202CC501C7F2D12000390002D27
:10048D00E0FCA3E0FDA3E0FEA3E0FF120345900016
:10049D002D120450E4FFFE7DC87C4290002DE0F843
:1004AD00A3E0F9A3E0FAA3E0FB120126E4FBFA793D
:1004BD00C8784212022F120394900031EEF0A3EF90
:1004CD00F090002DE0FCA3E0FDA3E0FEA3E0FFC053
:1004DD0004C005C006C007A3E0FCA3E0FDEC1203B9
:1004ED005BA804A905AA06AB07D007D006D005D096
:1004FD000412003190002D120450E4FFFE7DC87CE3
:10050D004290002DE0F8A3E0F9A3E0FAA3E0FB127E
:10051D000126E4FBFA7920784112022F1203949000
:10052D000033EEF0A3EFF090002DE0FCA3E0FDA36F
:10053D00E0FEA3E0FFC004C005C006C00790003375
:10054D00E0FCA3E0FDEC12035B7BCD7ACC79CC789B
:10055D003D120126A804A905AA06AB07D007D006AF
:10056D00D005D00412003190002D120450E4FFFE8E
:10057D007D7A7C4490002DE0F8A3E0F9A3E0FAA386
:10058D00E0FB120126E4FBFA7920784112022F12CA
:10059D000394900035EEF0A3EFF0900031E0FEA350
:1005AD00E02422F58274003EF583E0FF12000390F3
:1005BD00002CE0FF120003900033E0FEA3E02422A4
:1005CD00F58274003EF583E0FF120003900035E0E4
:1005DD00FEA3E02422F58274003EF583E0FF1200B5
:0B05ED00037F561200037F0902000389
:1007B600438E805389F0758ACD758CD4C28DD2A9AB
:0307C600D28C22B0
:1005F800C2AF12078B1207B61207C9D2AFD2ADC36A
:10060800900021E094B8900020E0940B40F1E4F0D1
:10061800A3F0FF1207D8AC07E4120360E4FBFA79F1
:1006280080784312022FE4FBFA79A0784012012661
:100638009000001204507F011207D8AC07E412039F
:1006480060E4FBFA7980784312022FE4FBFA79A080
:100658007840120126900004120450900000120401
:100668005C90000412045C900000E0F8A3E0F9A399
:10067800E0FAA3E0FBA3E0FCA3E0FDA3E0FEA3E017
:0F068800FF1200311204677F0A120003020607F7
:03000B0002000EE2
:10000E00C0E0C083C082900021E004F07006900032
:0B001E0020E004F0D082D083D0E0325C
:0B075B00900040EBF0A3EAF0A3E9F0EF
:10076600E4FFEFC39D501D900040E0FBA3E0FAA319
:10077600E0F98F82758300120415F5993099FDC250
:04078600990F80DE69
:01078A00224C
:080003008F993099FDC299228A
:10078B00759850438E40538EFE53890F758BE075D1
:07079B008DFEC2ABD28E22DD
:0F07C900759DFFE4F5BD900037F07488F5BC22F4
:03002B00020723A6
:10072300C0E0C083C082C0D075D000C00753BCEF07
:10073300900037E0FF2438F582E43400F583E5BD0B
:10074300F0EF045407900037F04488F5BCD007D08D
:08075300D0D082D083D0E03247
:0D07D80074382FF582E43400F583E0FF2231
:10002E00020400E86480F8E933E83360110460F0FC
:10003E00ED33EC337009E8FCE9FDEAFEEBFF220438
:10004E0060DED3EB9FEA9EE99DE8C2E78CF0C2F733
:10005E0095F0400CE8CCF8E9CDF9EACEFAEBCFFBFF
:10006E001203CB85D0F05804700320D5B3E804708A
:10007E00075002B2D502040A92D5EC0460F7E4CC24
:10008E00C0E0C398F8603B94186008400DD0E0FBC8
:10009E000203E2E4FBFAC9FC8028E830E406E4C976
:1000AE00FBE4CAFCE830E305E4C9CACBFCE854071C
:1000BE006010F8C3E913F9EA13FAEB13FBEC13FC27
:1000CE00D8F130F52FC3E49CFCEF9BFFEE9AFEEDCA
:1000DE0099FDD0E0FBEF4E4D4C701222DB03020473
:1000EE0007EC2CFCEF33FFEE33FEED33FDED30E786
:1000FE00EB0203E2EF2BFFEE3AFEED39FDD0E0FB13
:10010E0050130BBB000302040AED13FDEE13FEEFBA
:08011E0013FFEC13FC0203E2E5
:10012600EC4D6011E8497017ED33EC3304600DE4D3
:10013600FCFFFEFD22E933E8330470F802040012E6
:1001460003CB58046009E4CC2481500628500902E8
:10015600040A284003020407C0E0EB4A7044B98051
:1001660006D0E0FB0203F6EF4E701CBD8008EBFFE5
:10017600EAFEE9FD80EBE98DF0A4FEE5F002020F50
:10018600E9CDF9EAFEEBFFEF89F0A4FCE5F0CE89B4
:10019600F0A42EFFE435F0CD89F0A42DFEE435F071
:1001A6008067EF4E7005BD80D780C3EF8BF0A4AC9F
:1001B600F0EE8BF0A42CFCE435F0F8EF8AF0A42CDA
:1001C600E5F038FCE433CB8DF0A42CFCE5F03BF8ED
:1001D600EE8AF0A42CFCE5F038F8E433CF89F0A4DD
:1001E6002CFCE5F038CF3400CE89F0A42FFFE5F0E3
:1001F6003EFEE433C98DF0A42EFEE5F039CD8AF03B
:10020600A42FFFE5F03EFEE43DFD33D0E0FB5007B2
:100216000BBB000F02040AEC2CFCEF33FFEE33FE9F
:06022600ED33FD0203E2CE
:10022C0002040AEC5D046005E85904700302040042
:10023C001203CB580460F6EC4860F2EC7004FDFE3F
:10024C00FF22C860DB2481C85009C39860025006A5
:10025C000204079850CAF582E9294B4A7005AB8213
:10026C000203F675F0007C1A7880C3EF9BEE9AEDD2
:10027C0099400DC3EF9BFFEE9AFEED99FDE842F01D
:10028C00DC23ACF0D0E0FFD0E0FED0E0FDAB822070
:10029C00E7101BEB60BAEC2CFCEF33FFEE33FEEDFA
:1002AC0033FD0203E2E803F830E705C0F075F00017
:1002BC00EF2FFFEE33FEED33FD40B830E7C280AADE
:1002CC0074F8CC6480CCC86480C8F58204604FC3D9
:1002DC00EB9FF5F0EA9E42F0E99D42F0E89C45F078
:1002EC00603C501DE5825FFFE582D313CB5BCBF402
:1002FC002B5582FB50280ABA002409B9002008802B
:10030C001DE5825BFBE582D313CF5FCFF4C3132FC4
:10031C005582FF50090EBE00050DBD00010CC3EB4C
:10032C009FF5F0EA9E42F0E99D42F0E89C45F060B2
:09033C0007CC4820E701B3EC22D4
:10034500ED33EC33600A047003BD8004ECB2E7FCC6
:010355002285
:1003560075F020800E75F010800575F0087D007E22
:10036600007F003392D530D503120442EC3340109F
:10037600EF33FFEE33FEED33FDEC33FCD5F0ED222B
:0E038600E5F0247EA2D513CC92E7CDCEFF2267
:10039400EDD2E7CD33EC3392D524814006E4FFFE61
:1003A400FDFC22FCE4CFCECDCC24E0501174FF80C0
:1003B400EDC3CC13CCCD13CDCE13CECF13CF04705D
:0703C400F030D5DE02044217
:1003CB00E9D2E7C933E833F892D5EDD2E7CD33EC78
:0703DB0033FC5002B2D522F1
:1003E200EC30E7100FBF000C0EBE00080DBD00047C
:1003F2000BEB6014A2D5EB13FCED92E7FD2274FF28
:10040200FCFDFEFF22E480F8A2D574FF13FC7D8080
:03041200E480EF94
:030000000206975E
:0C069700787FE4F6D8FD7581070206DECE
:10041500BB010CE58229F582E5833AF583E022509C
:1004250006E92582F8E622BBFE06E92582F8E222E6
:0D043500E58229F582E5833AF583E4932200
:0E044200C3E49FFFE49EFEE49DFDE49CFC22CB
:0C045000ECF0A3EDF0A3EEF0A3EFF0221F
:1006A3000205F8E493A3F8E493A34003F68001F270
:1006B30008DFF48029E493A3F85407240CC8C33358
:1006C300C4540F4420C8834004F456800146F6DF27
:1006D300E4800B01020408102040809007A2E47E0E
:1006E300019360BCA3FF543F30E509541FFEE4931C
:1006F300A360010ECF54C025E060A840B8E493A3E3
:10070300FAE493A3F8E493A3C8C582C8CAC583CA0D
:10071300F0A3C8C582C8CAC583CADFE9DEE780BEC5
:0107B5000043
:00000001FF
