:0300170001482875
:1008240053890F758D4CE4F58BD2ABD28EF54922EA
:0804B6008F358E348D338C323A
:1004BE00E4FFFE7DC87C42AB35AA34A933A83212C4
:1004CE000126E4FBFA79C8784212022F1203838FB9
:1004DE0036AF35AE34AD33AC32C004C005C006C045
:1004EE0007AC36E412034FA804A905AA06AB07D041
:1004FE0007D006D005D0041200318F358E348D33DF
:10050E008C32E4FFFE7DC87C42AB35AA34A933A8F9
:10051E0032120126E4FBFA7920784112022F1203DF
:10052E00838F37AF35AE34AD33AC32C004C005C0A7
:10053E0006C007AC37E412034F7BCD7ACC79CC786A
:10054E003D120126A804A905AA06AB07D007D006BE
:10055E00D005D0041200318F358E348D338C32E4B9
:10056E00FFFE7DC87C42AB35AA34A933A8321201F6
:10057E00261203838F38E5362430FF1200037F2EB8
:10058E00120003E5372430FF120003E5382430FF54
:0D059E001200037F561200037F09020003C4
:1005AB0012082412074B120834120805D2ADD2AF31
:1005BB007D28E4FF1207C07D287F011207C0E4FFEE
:1005CB0012085AAC07E412034FE4FBFA794C784259
:1005DB0012022F8F298E288D278C267F0112085A05
:1005EB00AC07E412034FE4FBFA794C784212022F6A
:1005FB008F2D8E2C8D2B8C2AAB2DAA2CA92BA82AB8
:10060B00AF29AE28AD27AC261200318F318E308D3D
:10061B002F8C2EE4FFFEFDFCAB31AA30A92FA82EA8
:10062B001202CC500E7D32E4FF1207C07D1E7F01FB
:10063B001207C0E4FFFEFDFCAB31AA30A92FA82E98
:10064B001202CC6010400E7D327F011207C07D1E5E
:10065B00E4FF1207C0E549642860030205C9AF290E
:10066B00AE28AD27AC261204B6AF2DAE2CAD2BACFD
:10067B002A1204B6AF31AE30AD2FAC2E1204B67FBA
:0A068B000A120003E4F5490205C954
:03001B0002000ED2
:09000E00758C4C758A000549321D
:10080500E5A254CF4410F5A2E4F5D8F5E9F5F9755C
:0F081500D902F5F275DA42F5F375DB42D2DE2235
:0207C000AB0785
:1007C200ED7F00FE7C007D64120453EFF404FFEB26
:1007D2007006AE078EEA8EFAEB640170048FEB8F1F
:0107E200FB1B
:0107E30022F3
:0F083400759DFFE4F5BDF539E5394488F5BC2223
:03002B000207E4E5
:1007E400C0E0C0D075D00853BCEF743A2539F8A6E0
:1007F400BDE539045407F5394488F5BCD0D0D0E0C0
:0108040032C1
:07085A00743A2FF8E6FF22BB
:060774008B428A43894418
:10077A00E4FFEFC39D5018AB42AA43A9448F827588
:0F078A008300120404F5993099FDC2990F80E3A2
:01079900223D
:080003008F993099FDC299228A
:10074B00120843E598543F4440F598538EEF438E7F
:10075B0001438E0475D6FF75D7E8438E10C298C23D
:09076B0099D29CD2ACE4F52422E1
:0E0843005389F0758CEEE4F58AD2A9C28C229E
:0300230002079A37
:10079A00C0E0C0D075D000C000309813C298741061
:1007AA002525F8A6990525758CEE758A00D28CD078
:0607BA0000D0D0D0E032B7
:03000B0002085197
:09085100C28C85252475250032B6
:060721008B458A46894762
:10072700E4FFEFC39524501674102FF8E6AB45AAE3
:1007370046A9478F827583001204310F80E4AF24E6
:03074700E4F524B2
:01074A00228C
:10002E000203EFE86480F8E933E83360110460F00E
:10003E00ED33EC337009E8FCE9FDEAFEEBFF220438
:10004E0060DED3EB9FEA9EE99DE8C2E78CF0C2F733
:10005E0095F0400CE8CCF8E9CDF9EACEFAEBCFFBFF
:10006E001203BA85D0F05804700320D5B3E804709B
:10007E00075002B2D50203F992D5EC0460F7E4CC36
:10008E00C0E0C398F8603B94186008400DD0E0FBC8
:10009E000203D1E4FBFAC9FC8028E830E406E4C987
:1000AE00FBE4CAFCE830E305E4C9CACBFCE854071C
:1000BE006010F8C3E913F9EA13FAEB13FBEC13FC27
:1000CE00D8F130F52FC3E49CFCEF9BFFEE9AFEEDCA
:1000DE0099FDD0E0FBEF4E4D4C701222DB03020374
:1000EE00F6EC2CFCEF33FFEE33FEED33FDED30E797
:1000FE00EB0203D1EF2BFFEE3AFEED39FDD0E0FB24
:10010E0050130BBB00030203F9ED13FDEE13FEEFCC
:08011E0013FFEC13FC0203D1F6
:10012600EC4D6011E8497017ED33EC3304600DE4D3
:10013600FCFFFEFD22E933E8330470F80203EF12F8
:1001460003BA58046009E4CC2481500628500902F9
:1001560003F92840030203F6C0E0EB4A7044B98075
:1001660006D0E0FB0203E5EF4E701CBD8008EBFFF6
:10017600EAFEE9FD80EBE98DF0A4FEE5F002020F50
:10018600E9CDF9EAFEEBFFEF89F0A4FCE5F0CE89B4
:10019600F0A42EFFE435F0CD89F0A42DFEE435F071
:1001A6008067EF4E7005BD80D780C3EF8BF0A4AC9F
:1001B600F0EE8BF0A42CFCE435F0F8EF8AF0A42CDA
:1001C600E5F038FCE433CB8DF0A42CFCE5F03BF8ED
:1001D600EE8AF0A42CFCE5F038F8E433CF89F0A4DD
:1001E6002CFCE5F038CF3400CE89F0A42FFFE5F0E3
:1001F6003EFEE433C98DF0A42EFEE5F039CD8AF03B
:10020600A42FFFE5F03EFEE43DFD33D0E0FB5007B2
:100216000BBB000F0203F9EC2CFCEF33FFEE33FEB1
:06022600ED33FD0203D1DF
:10022C000203F9EC5D046005E8590470030203EF66
:10023C001203BA580460F6EC4860F2EC7004FDFE50
:10024C00FF22C860DB2481C85009C39860025006A5
:10025C000203F69850CAF582E9294B4A7005AB8225
:10026C000203E575F0007C1A7880C3EF9BEE9AEDE3
:10027C0099400DC3EF9BFFEE9AFEED99FDE842F01D
:10028C00DC23ACF0D0E0FFD0E0FED0E0FDAB822070
:10029C00E7101BEB60BAEC2CFCEF33FFEE33FEEDFA
:1002AC0033FD0203D1E803F830E705C0F075F00028
:1002BC00EF2FFFEE33FEED33FD40B830E7C280AADE
:1002CC0074F8CC6480CCC86480C8F58204604FC3D9
:1002DC00EB9FF5F0EA9E42F0E99D42F0E89C45F078
:1002EC00603C501DE5825FFFE582D313CB5BCBF402
:1002FC002B5582FB50280ABA002409B9002008802B
:10030C001DE5825BFBE582D313CF5FCFF4C3132FC4
:10031C005582FF50090EBE00050DBD00010CC3EB4C
:10032C009FF5F0EA9E42F0E99D42F0E89C45F060B2
:09033C0007CC4820E701B3EC22D4
:1003450075F020800E75F010800575F0087D007E33
:10035500007F003392D530D5031204A8EC3340104A
:10036500EF33FFEE33FEED33FDEC33FCD5F0ED223C
:0E037500E5F0247EA2D513CC92E7CDCEFF2278
:10038300EDD2E7CD33EC3392D524814006E4FFFE72
:10039300FDFC22FCE4CFCECDCC24E0501174FF80D1
:1003A300EDC3CC13CCCD13CDCE13CECF13CF04706E
:0703B300F030D5DE0204A8C2
:1003BA00E9D2E7C933E833F892D5EDD2E7CD33EC89
:0703CA0033FC5002B2D52202
:1003D100EC30E7100FBF000C0EBE00080DBD00048D
:1003E1000BEB6014A2D5EB13FCED92E7FD2274FF39
:1003F100FCFDFEFF22E480F8A2D574FF13FC7D8092
:03040100E480EFA5
:0300000002069560
:0C069500787FE4F6D8FD7581490206DC90
:10040400BB010CE58229F582E5833AF583E02250AD
:1004140006E92582F8E622BBFE06E92582F8E222F7
:0D042400E58229F582E5833AF583E4932211
:10043100F8BB010DE58229F582E5833AF583E8F001
:10044100225006E92582C8F622BBFE05E92582C8AD
:02045100F22295
:10045300BC000BBE0029EF8DF084FFADF022E4CC8D
:10046300F875F008EF2FFFEE33FEEC33FCEE9DEC56
:10047300984005FCEE9DFE0FD5F0E9E4CEFD22ED9C
:10048300F8F5F0EE8420D21CFEADF075F008EF2FE6
:10049300FFED33FD4007985006D5F0F222C398FDD7
:0504A3000FD5F0EA2274
:0E04A800C3E49FFFE49EFEE49DFDE49CFC2265
:1006A1000205ABE493A3F8E493A34003F68001F2BF
:1006B10008DFF48029E493A3F85407240CC8C3335A
:1006C100C4540F4420C8834004F456800146F6DF29
:1006D100E4800B0102040810204080900017E47EA2
:1006E100019360BCA3FF543F30E509541FFEE4931E
:1006F100A360010ECF54C025E060A840B8E493A3E5
:10070100FAE493A3F8E493A3C8C582C8CAC583CA0F
:10071100F0A3C8C582C8CAC583CADFE9DEE780BEC7
:01001A0000E5
:00000001FF
