:0E011F0002080000080AFEFDFBF7EFDFBF7FBD
:10000300758920758DF3758BF3758780D28E7598FE
:0600130050D2ACD2AF2276
:1000B200120003E51224D0F514E434FFF513E50928
:1000C2006401450870EDE513704CE514B408005066
:1000D200459000DAF82828730200F20200F70200C5
:1000E200FC02010102010602010B020110020115CC
:1000F200850AA08021850BA0801C850CA080178515
:100102000DA08012850EA0800D850FA0800885109D
:0D011200A080038511A0E4F508F509809692
:0300230002012EA9
:0C012E00C298859912750800750901320D
:03000000020026D5
:0C002600787FE4F6D8FD75811402006DAF
:100032000200B2E493A3F8E493A34003F68001F232
:1000420008DFF48029E493A3F85407240CC8C333CF
:10005200C4540F4420C8834004F456800146F6DF9E
:10006200E4800B010204081020408090011FE47E0E
:10007200019360BCA3FF543F30E509541FFEE49393
:10008200A360010ECF54C025E060A840B8E493A35A
:10009200FAE493A3F8E493A3C8C582C8CAC583CA85
:1000A200F0A3C8C582C8CAC583CADFE9DEE780BE3D
:01012D0000D1
:00000001FF
