:10088100022800000B2A30313233343536373839FB
:010891002E38
:0804A5008F388E378D368C353F
:1004AD00E4FFFEFDFCAB38AA37A936A8351202CC05
:1004BD0050187F2D120003AF38AE37AD36AC351264
:1004CD0003458F388E378D368C35E4FFFE7DC87C25
:1004DD0042AB38AA37A936A835120126E4FBFA79C2
:1004ED00C8784212022F1203948E398F3AAF38AE6C
:1004FD0037AD36AC35C004C005C006C007AC39AD4C
:10050D003AEC12035BA804A905AA06AB07D007D0E5
:10051D0006D005D0041200318F388E378D368C35CC
:10052D00E4FFFE7DC87C42AB38AA37A936A8351248
:10053D000126E4FBFA7920784112022F1203948EE2
:10054D003B8F3CAF38AE37AD36AC35C004C005C0BF
:10055D0006C007AC3BAD3CEC12035B7BCD7ACC798E
:10056D00CC783D120126A804A905AA06AB07D00731
:10057D00D006D005D0041200318F388E378D368CD1
:10058D0035E4FFFE7D7A7C44AB38AA37A936A83511
:10059D00120126E4FBFA7920784112022F120394FE
:1005AD008E3D8F3E742A253AF8E6FF120003AF34D4
:1005BD00120003742A253CF8E6FF120003742A2565
:1005CD003EF8E6FF1200037F561200037F0902007A
:0105DD00031A
:1005DE00C3E52994B8E528940B500302066FE4F5A1
:1005EE0028F529FF1208AFAC07E4120360E4FBFA0A
:1005FE007980784312022FE4FBFA79A07840120139
:10060E00268F0B8E0A8D098C087F011208AFAC075E
:10061E00E4120360E4FBFA7980784312022FE4FBC4
:10062E00FA79A078401201268F0F8E0E8D0D8C0C4C
:10063E00AF0BAE0AAD09AC081204A5AF0FAE0EADEE
:10064E000DAC0C1204A5AB0FAA0EA90DA80CAF0B86
:10065E00AE0AAD09AC081200311204A57F0A1200D1
:02066E00032265
:1007C100C3E52994B8E528940B402CE4FF1208AF47
:1007D1001200037F011208AF1200037F011208AF5C
:1007E100C007E4FF1208AFAE07D007C3EE9FFF12A8
:0807F10000037F0A120003223D
:10086E00438E805389F0758ACD758CD4C28DD2A9F2
:03087E00D28C22F7
:03000B000208A246
:0D08A200C0E00529E52970020528D0E032EC
:1006FC00C2AF1207F912000E12086E120893D2AF95
:10070C00D2ADE4FF1208AF8F3F7F011208AF8F40CC
:10071C00C3E53F9FFFE49400CF24FBFDEF34FFFCC7
:10072C0012035B8F448E438D428C418F488E478DD4
:10073C00468C45AB48AA47A946A845E4FFFE7D90E8
:10074C007C42120031120394AD07E4FF120779E4E6
:10075C00FFFE7D827C42AB48AA47A946A845120001
:0D076C0035120394AD077F011207798095C7
:1007F900E5A254CF4410F5A2E4F5D8F5E9F5F97569
:10080900D902F5F275DA42F5F375DB42F5F475EACA
:0A0819004D75FA4D75DA42D2DE2269
:10077900AB05AA07EA7012EB7F00FE7C007D6412CC
:100789000442EFF404F5EAF5FAEA64017012EB7F2A
:1007990000FE7C007D64120442EFF404F5EBF5FBE6
:1007A900EA64027012EB7F00FE7C007D6412044251
:0807B900EFF404F5ECF5FC225D
:0F089300759DFFE4F5BDF549E5494488F5BC22A4
:03002B000208497F
:10084900C0E0C0D075D000C00053BCEF744A254940
:10085900F8A6BDE549045407F5494488F5BCD0001C
:05086900D0D0D0E03208
:0708AF00744A2FF8E6FF2256
:060823008B528A53895438
:10082900E4FFEFC39D5018AB52AA53A9548F8275A8
:0F0839008300120415F5993099FDC2990F80E3E1
:01084800228D
:080003008F993099FDC299228A
:10000E00759850438E40538EFE53890F758BE07555
:07001E008DFEC2ABD28E2261
:10002E00020400E86480F8E933E83360110460F0FC
:10003E00ED33EC337009E8FCE9FDEAFEEBFF220438
:10004E0060DED3EB9FEA9EE99DE8C2E78CF0C2F733
:10005E0095F0400CE8CCF8E9CDF9EACEFAEBCFFBFF
:10006E001203CB85D0F05804700320D5B3E804708A
:10007E00075002B2D502040A92D5EC0460F7E4CC24
:10008E00C0E0C398F8603B94186008400DD0E0FBC8
:10009E000203E2E4FBFAC9FC8028E830E406E4C976
:1000AE00FBE4CAFCE830E305E4C9CACBFCE854071C
:1000BE006010F8C3E913F9EA13FAEB13FBEC13FC27
:1000CE00D8F130F52FC3E49CFCEF9BFFEE9AFEEDCA
:1000DE0099FDD0E0FBEF4E4D4C701222DB03020473
:1000EE0007EC2CFCEF33FFEE33FEED33FDED30E786
:1000FE00EB0203E2EF2BFFEE3AFEED39FDD0E0FB13
:10010E0050130BBB000302040AED13FDEE13FEEFBA
:08011E0013FFEC13FC0203E2E5
:10012600EC4D6011E8497017ED33EC3304600DE4D3
:10013600FCFFFEFD22E933E8330470F802040012E6
:1001460003CB58046009E4CC2481500628500902E8
:10015600040A284003020407C0E0EB4A7044B98051
:1001660006D0E0FB0203F6EF4E701CBD8008EBFFE5
:10017600EAFEE9FD80EBE98DF0A4FEE5F002020F50
:10018600E9CDF9EAFEEBFFEF89F0A4FCE5F0CE89B4
:10019600F0A42EFFE435F0CD89F0A42DFEE435F071
:1001A6008067EF4E7005BD80D780C3EF8BF0A4AC9F
:1001B600F0EE8BF0A42CFCE435F0F8EF8AF0A42CDA
:1001C600E5F038FCE433CB8DF0A42CFCE5F03BF8ED
:1001D600EE8AF0A42CFCE5F038F8E433CF89F0A4DD
:1001E6002CFCE5F038CF3400CE89F0A42FFFE5F0E3
:1001F6003EFEE433C98DF0A42EFEE5F039CD8AF03B
:10020600A42FFFE5F03EFEE43DFD33D0E0FB5007B2
:100216000BBB000F02040AEC2CFCEF33FFEE33FE9F
:06022600ED33FD0203E2CE
:10022C0002040AEC5D046005E85904700302040042
:10023C001203CB580460F6EC4860F2EC7004FDFE3F
:10024C00FF22C860DB2481C85009C39860025006A5
:10025C000204079850CAF582E9294B4A7005AB8213
:10026C000203F675F0007C1A7880C3EF9BEE9AEDD2
:10027C0099400DC3EF9BFFEE9AFEED99FDE842F01D
:10028C00DC23ACF0D0E0FFD0E0FED0E0FDAB822070
:10029C00E7101BEB60BAEC2CFCEF33FFEE33FEEDFA
:1002AC0033FD0203E2E803F830E705C0F075F00017
:1002BC00EF2FFFEE33FEED33FD40B830E7C280AADE
:1002CC0074F8CC6480CCC86480C8F58204604FC3D9
:1002DC00EB9FF5F0EA9E42F0E99D42F0E89C45F078
:1002EC00603C501DE5825FFFE582D313CB5BCBF402
:1002FC002B5582FB50280ABA002409B9002008802B
:10030C001DE5825BFBE582D313CF5FCFF4C3132FC4
:10031C005582FF50090EBE00050DBD00010CC3EB4C
:10032C009FF5F0EA9E42F0E99D42F0E89C45F060B2
:09033C0007CC4820E701B3EC22D4
:10034500ED33EC33600A047003BD8004ECB2E7FCC6
:010355002285
:1003560075F020800E75F010800575F0087D007E22
:10036600007F003392D530D503120497EC3340104A
:10037600EF33FFEE33FEED33FDEC33FCD5F0ED222B
:0E038600E5F0247EA2D513CC92E7CDCEFF2267
:10039400EDD2E7CD33EC3392D524814006E4FFFE61
:1003A400FDFC22FCE4CFCECDCC24E0501174FF80C0
:1003B400EDC3CC13CCCD13CDCE13CECF13CF04705D
:0703C400F030D5DE020497C2
:1003CB00E9D2E7C933E833F892D5EDD2E7CD33EC78
:0703DB0033FC5002B2D522F1
:1003E200EC30E7100FBF000C0EBE00080DBD00047C
:1003F2000BEB6014A2D5EB13FCED92E7FD2274FF28
:10040200FCFDFEFF22E480F8A2D574FF13FC7D8080
:03041200E480EF94
:0300000002067085
:0C067000787FE4F6D8FD7581540206B7CF
:10041500BB010CE58229F582E5833AF583E022509C
:1004250006E92582F8E622BBFE06E92582F8E222E6
:0D043500E58229F582E5833AF583E4932200
:10044200BC000BBE0029EF8DF084FFADF022E4CC9E
:10045200F875F008EF2FFFEE33FEEC33FCEE9DEC67
:10046200984005FCEE9DFE0FD5F0E9E4CEFD22EDAD
:10047200F8F5F0EE8420D21CFEADF075F008EF2FF7
:10048200FFED33FD4007985006D5F0F222C398FDE8
:050492000FD5F0EA2285
:0E049700C3E49FFFE49EFEE49DFDE49CFC2276
:10067C000206FCE493A3F8E493A34003F68001F292
:10068C0008DFF48029E493A3F85407240CC8C3337F
:10069C00C4540F4420C8834004F456800146F6DF4E
:1006AC00E4800B0102040810204080900881E47E55
:1006BC00019360BCA3FF543F30E509541FFEE49343
:1006CC00A360010ECF54C025E060A840B8E493A30A
:1006DC00FAE493A3F8E493A3C8C582C8CAC583CA35
:1006EC00F0A3C8C582C8CAC583CADFE9DEE780BEED
:010892000065
:00000001FF
