:0B0330003F065B4F666D7D077F6F404E
:10030000020A0000020C000002080000020E0000B9
:040321007F647E0077
:0B032500EF1FAC0670011E4C70F622AA
:10031100D2AFD2A9438901D28C758CFC758A18227F
:09033B00D2A8D288D2AAD28A22EB
:1001B9001201CDAF03AE020D7C001201CD0D7C0002
:0401C9007F0A7E002B
:1001CD00EC7053EDB40800504D9001DDF828287304
:1001DD000201F50201F902020102020502020D02FD
:1001ED00021102021902021DC2A28002D2A2C2A3F2
:1001FD00C2A48022C2A28002D2A2D2A3C2A480161F
:10020D00C2A28002D2A2C2A3D2A4800AC2A280023C
:10021D00D2A2D2A3D2A474302FF58274033EF583FB
:0B022D00E493F580120321E4F5802229
:080016008E108F118C128D1366
:10001E007C007D0AAF03AE0212012E8D828C83AE60
:10002E0002AF037C007D0A12012EAB07AA06AF8237
:10003E00AE83E4FDFC1201B9AE12AF137C007D0A53
:10004E0012012E8C838D82AE12AF137C007D0A12AC
:10005E00012EAA06AB07AF82AE837D037C00120190
:10006E00B9AE10AF117C007D0A12012E8C838D82E9
:10007E00AE10AF117C007D0A12012EAA06AB07AF9F
:10008E0082AE837D067C001201CDAF03AE020D7CE5
:04009E00000201CD8E
:1002380012031112033BC3E50F94E8E50E648094A2
:1002480083400D0509E50970020508E4F50EF50F70
:10025800C3E509943CE50864809480400D050DE5EC
:100268000D7002050CE4F508F509C3E50D943CE5AD
:100278000C64809480400D050BE50B7002050AE4C0
:10028800F50CF50DAB09AA08AD0DAC0CAF0BAE0A19
:0502980012001680A118
:03000B000202ED01
:1002ED00C0E0758CFC758A18050FE50F7002050EC0
:0302FD00D0E0321C
:0300030002029D59
:10029D00C0E0C0D075D000C004C006C00712032155
:1002AD0020B212750A00750B00750C00750D0075E6
:1002BD000800750900D007D006D004D0D0D0E032A8
:030013000202CD19
:1002CD00C0E0C0D075D000C004C006C00712032125
:1002DD0020B302B2A9D007D006D004D0D0D0E032DE
:030000000200A259
:0C00A200787FE4F6D8FD7581130200E9B8
:10012E00C2D5EC30E709B2D5E4C39DFDE49CFCEEEC
:10013E0030E715B2D5E4C39FFFE49EFE120164C3FF
:10014E00E49DFDE49CFC800312016430D507C3E4FA
:06015E009FFFE49EFE225B
:1000AE00020238E493A3F8E493A34003F68001F22E
:1000BE0008DFF48029E493A3F85407240CC8C33353
:1000CE00C4540F4420C8834004F456800146F6DF22
:1000DE00E4800B0102040810204080900300E47EAF
:1000EE00019360BCA3FF543F30E509541FFEE49317
:1000FE00A360010ECF54C025E060A840B8E493A3DE
:10010E00FAE493A3F8E493A3C8C582C8CAC583CA08
:10011E00F0A3C8C582C8CAC583CADFE9DEE780BEC0
:0103100000EC
:10016400BC000BBE0029EF8DF084FFADF022E4CC7F
:10017400F875F008EF2FFFEE33FEEC33FCEE9DEC48
:10018400984005FCEE9DFE0FD5F0E9E4CEFD22ED8E
:10019400F8F5F0EE8420D21CFEADF075F008EF2FD8
:1001A400FFED33FD4007985006D5F0F222C398FDC9
:0501B4000FD5F0EA2266
:00000001FF
