:0C00EE00020E0030060874696D65730096
:1000D400758920758DF3758BF3758780D28E75982D
:0A00E40050D2A8D288D2ACD2AF22CD
:0500FB001200D480FE9C
:0300030002009266
:0D009200C0E0C0D075D000C000C006C0079F
:10009F00050FE50F7002050EE4FFFE74082FF8E65A
:1000AF00F5993099FDC2990FBF00010EEF64054E0F
:0A00BF0070E9850F993099FDC29990
:0B00C900D007D006D000D0D0D0E0322D
:03000000020006F5
:0C000600787FE4F6D8FD75810F02004DF4
:100012000200FBE493A3F8E493A34003F68001F209
:1000220008DFF48029E493A3F85407240CC8C333EF
:10003200C4540F4420C8834004F456800146F6DFBE
:10004200E4800B01020408102040809000EEE47E60
:10005200019360BCA3FF543F30E509541FFEE493B3
:10006200A360010ECF54C025E060A840B8E493A37A
:10007200FAE493A3F8E493A3C8C582C8CAC583CAA5
:10008200F0A3C8C582C8CAC583CADFE9DEE780BE5D
:0100FA000005
:00000001FF
