:10011D00007700FA007700FA005F01F4007701F430
:10012D00005A01F4005F03E8007700FA007700FA47
:10013D00006A01F4007701F4005001F4005A03E85D
:10014D00007700FA007700FA003C01F4004701F453
:10015D00005A01F4005F01F4006A03E8004300FA5D
:10016D00004300FA004701F4005A01F4005001F475
:10017D00005A0BB8005A0BB8000000000000000038
:04018D00000000006E
:0401EA00020C000003
:0E01DC00D2A9438901D28C758CFC758A182239
:03000B000201C926
:1001C900C0E0758CFC758A18E50D150D7002150CCB
:0301D900D0E03241
:100191008C0C8D0DD2AFD3E50D9400E50C648094E9
:1001A100804022C295AA06AB07EB4A6007EB1B70A1
:1001B100F81A80F5D295AA06AB07EB4A60D8EB1B7B
:0701C10070F81A80F5C2AFCF
:0101C8002214
:10009A00E4F508F509F50A750B01E50B25E0FFE51E
:1000AA000A33FE741D2FF58274013EF583D3740161
:1000BA00939400E49364809480405774022509F570
:1000CA0009E43508F5087402250BF50BE4350AF541
:1000DA000AE50925E0FFE50833FE741D2FF5827451
:1000EA00013EF583E493FE740193FFC006C007E561
:1000FA000B25E0FFE50A33FE741D2FF58274013EDD
:10010A00F583E493FC740193FDD007D006120191A4
:02011A008088DB
:01011C0022C0
:080003001201DC12009A80FBDF
:0300000002000EED
:0C000E00787FE4F6D8FD75810D020055E6
:10001A00020003E493A3F8E493A34003F68001F2F9
:10002A0008DFF48029E493A3F85407240CC8C333E7
:10003A00C4540F4420C8834004F456800146F6DFB6
:10004A00E4800B01020408102040809001EAE47E5B
:10005A00019360BCA3FF543F30E509541FFEE493AB
:10006A00A360010ECF54C025E060A840B8E493A372
:10007A00FAE493A3F8E493A3C8C582C8CAC583CA9D
:10008A00F0A3C8C582C8CAC583CADFE9DEE780BE55
:0101EE000010
:00000001FF
