:0400030002080000EF
:1000C300D2AFD2A9438901D28C758CFC758A1822D0
:10009A001200C3E509B4E8FBE508B403F6E4F50881
:0600AA00F509B2A080ED93
:03000B000200B040
:1000B000C0E0758CFC758A180509E5097002050811
:0300C000D0E0325B
:0300000002000EED
:0C000E00787FE4F6D8FD758109020055EA
:10001A0002009AE493A3F8E493A34003F68001F262
:10002A0008DFF48029E493A3F85407240CC8C333E7
:10003A00C4540F4420C8834004F456800146F6DFB6
:10004A00E4800B0102040810204080900003E47E43
:10005A00019360BCA3FF543F30E509541FFEE493AB
:10006A00A360010ECF54C025E060A840B8E493A372
:10007A00FAE493A3F8E493A3C8C582C8CAC583CA9D
:10008A00F0A3C8C582C8CAC583CADFE9DEE780BE55
:0100070000F8
:00000001FF
