:0E017F00C2A2C2A3C2A4850A8012000380FEA1
:10000300758920758DF3758BF3758780D28E7598FE
:0600130050D2ACD2AF2276
:03002300020125B2
:10012500C0E0C0F0C083C082C0D075D000C000C0A0
:1001350001C002C003C004C005C006C007C29812B2
:1001450000B2C2AC7599013099FDC299D2ACD00705
:10015500D006D005D004D003D002D001D000D0D035
:09016500D082D083D0F0D0E0324A
:10016E000A0A3F065B4F666D7D077F6F020800012E
:1000B200E508705CE509B40A0050559000C4F828C0
:1000C20028730200E20200E70200EC0200F10200E3
:1000D200F60200FB02010002010502010A02010F01
:1000E200850A80802B850B808026850C8080218567
:1000F2000D80801C850E808017850F8080128510F0
:1001020080800D8511808008851280800385138090
:100112000509E50970020508640A45087004F50836
:03012200F50922BA
:03000000020026D5
:0C002600787FE4F6D8FD75811302006DB0
:1000320002017FE493A3F8E493A34003F68001F264
:1000420008DFF48029E493A3F85407240CC8C333CF
:10005200C4540F4420C8834004F456800146F6DF9E
:10006200E4800B010204081020408090016EE47EBF
:10007200019360BCA3FF543F30E509541FFEE49393
:10008200A360010ECF54C025E060A840B8E493A35A
:10009200FAE493A3F8E493A3C8C582C8CAC583CA85
:1000A200F0A3C8C582C8CAC583CADFE9DEE780BE3D
:01017E000080
:00000001FF
