:10069C0042002000004B00223031323334353637E3
:0306AC0038392EAC
:0603D20090002D1203C68D
:1003D800E4FFFE7DC87C4290002DE0F8A3E0F9A37D
:1003E800E0FAA3E0FB120126E4FBFA79C87842128E
:1003F800022F12030A900031EEF0A3EFF090002DC7
:10040800E0FCA3E0FDA3E0FEA3E0FFC004C005C03C
:1004180006C007A3E0FCA3E0FDEC1202D1A804A9E2
:1004280005AA06AB07D007D006D005D004120031C4
:1004380090002D1203C6E4FFFE7DC87C4290002D7B
:10044800E0F8A3E0F9A3E0FAA3E0FB120126E4FB3D
:10045800FA7920784112022F12030A900033EEF045
:10046800A3EFF090002DE0FCA3E0FDA3E0FEA3E0E5
:10047800FFC004C005C006C007900033E0FCA3E03D
:10048800FDEC1202D17BCD7ACC79CC783D120126D5
:10049800A804A905AA06AB07D007D006D005D00442
:1004A80012003190002D1203C6E4FFFE7D7A7C44D1
:1004B80090002DE0F8A3E0F9A3E0FAA3E0FB120115
:1004C80026E4FBFA7920784112022F12030A9000E1
:1004D80035EEF0A3EFF0900031E0FEA3E02422F522
:1004E8008274003EF583E0FF12000390002CE0FFC9
:1004F800120003900033E0FEA3E02422F58274008A
:100508003EF583E0FF120003900035E0FEA3E024EF
:1005180022F58274003EF583E0FF1200037F561235
:0705280000037F090200033C
:1006B000438E805389F0758ACD758CD4C28DD2A9B2
:0306C000D28C22B7
:1005BB00C2AF1206851206B01206C3D2AFD2ADD2AD
:1005CB00CCC2C7C3900021E094B8900020E0940BFC
:1005DB0040F1E4F0A3F0FF1206D2AC07E41202D60E
:1005EB00E4FBFA7980784312022FE4FBFA79A078C6
:1005FB00401201269000001203C6900000E0FCA3FD
:10060B00E0FDA3E0FEA3E0FF1203D27F0A1200037A
:02061B0080B1AC
:03000B0002000EE2
:10000E00C0E0C083C082900021E004F07006900032
:0B001E0020E004F0D082D083D0E0325C
:0B065500900040EBF0A3EAF0A3E9F0F6
:10066000E4FFEFC39D501D900040E0FBA3E0FAA320
:10067000E0F98F8275830012038BF5993099FDC2E2
:04068000990F80DE70
:010684002253
:080003008F993099FDC299228A
:10068500759850438E40538EFE53890F758BE075D8
:070695008DFEC2ABD28E22E4
:0F06C300759DFFE4F5BD900037F07488F5BC22FB
:03002B0002061DAD
:10061D00C0E0C083C082C0D075D000C00753BCEF0E
:10062D00900037E0FF2438F582E43400F583E5BD12
:10063D00F0EF045407900037F04488F5BCD007D094
:08064D00D0D082D083D0E0324E
:0D06D20074382FF582E43400F583E0FF2238
:10002E00020376E86480F8E933E83360110460F087
:10003E00ED33EC337009E8FCE9FDEAFEEBFF220438
:10004E0060DED3EB9FEA9EE99DE8C2E78CF0C2F733
:10005E0095F0400CE8CCF8E9CDF9EACEFAEBCFFBFF
:10006E0012034185D0F05804700320D5B3E8047014
:10007E00075002B2D502038092D5EC0460F7E4CCAF
:10008E00C0E0C398F8603B94186008400DD0E0FBC8
:10009E00020358E4FBFAC9FC8028E830E406E4C900
:1000AE00FBE4CAFCE830E305E4C9CACBFCE854071C
:1000BE006010F8C3E913F9EA13FAEB13FBEC13FC27
:1000CE00D8F130F52FC3E49CFCEF9BFFEE9AFEEDCA
:1000DE0099FDD0E0FBEF4E4D4C701222DB03020374
:1000EE007DEC2CFCEF33FFEE33FEED33FDED30E710
:1000FE00EB020358EF2BFFEE3AFEED39FDD0E0FB9D
:10010E0050130BBB0003020380ED13FDEE13FEEF45
:08011E0013FFEC13FC0203586F
:10012600EC4D6011E8497017ED33EC3304600DE4D3
:10013600FCFFFEFD22E933E8330470F80203761271
:10014600034158046009E4CC248150062850090272
:10015600038028400302037DC0E0EB4A7044B98067
:1001660006D0E0FB02036CEF4E701CBD8008EBFF6F
:10017600EAFEE9FD80EBE98DF0A4FEE5F002020F50
:10018600E9CDF9EAFEEBFFEF89F0A4FCE5F0CE89B4
:10019600F0A42EFFE435F0CD89F0A42DFEE435F071
:1001A6008067EF4E7005BD80D780C3EF8BF0A4AC9F
:1001B600F0EE8BF0A42CFCE435F0F8EF8AF0A42CDA
:1001C600E5F038FCE433CB8DF0A42CFCE5F03BF8ED
:1001D600EE8AF0A42CFCE5F038F8E433CF89F0A4DD
:1001E6002CFCE5F038CF3400CE89F0A42FFFE5F0E3
:1001F6003EFEE433C98DF0A42EFEE5F039CD8AF03B
:10020600A42FFFE5F03EFEE43DFD33D0E0FB5007B2
:100216000BBB000F020380EC2CFCEF33FFEE33FE2A
:06022600ED33FD02035858
:10022C00020380EC5D046005E85904700302037658
:10023C00120341580460F6EC4860F2EC7004FDFEC9
:10024C00FF22C860DB2481C85009C39860025006A5
:10025C0002037D9850CAF582E9294B4A7005AB829E
:10026C0002036C75F0007C1A7880C3EF9BEE9AED5C
:10027C0099400DC3EF9BFFEE9AFEED99FDE842F01D
:10028C00DC23ACF0D0E0FFD0E0FED0E0FDAB822070
:10029C00E7101BEB60BAEC2CFCEF33FFEE33FEEDFA
:1002AC0033FD020358E803F830E705C0F075F000A1
:1002BC00EF2FFFEE33FEED33FD40B830E7C280AADE
:1002CC0075F020800E75F010800575F0087D007EAD
:1002DC00007F003392D530D5031203B8EC334010B5
:1002EC00EF33FFEE33FEED33FDEC33FCD5F0ED22B6
:0E02FC00E5F0247EA2D513CC92E7CDCEFF22F2
:10030A00EDD2E7CD33EC3392D524814006E4FFFEEB
:10031A00FDFC22FCE4CFCECDCC24E0501174FF804A
:10032A00EDC3CC13CCCD13CDCE13CECF13CF0470E7
:07033A00F030D5DE0203B82C
:10034100E9D2E7C933E833F892D5EDD2E7CD33EC02
:0703510033FC5002B2D5227B
:10035800EC30E7100FBF000C0EBE00080DBD000406
:100368000BEB6014A2D5EB13FCED92E7FD2274FFB2
:10037800FCFDFEFF22E480F8A2D574FF13FC7D800B
:03038800E480EF1F
:0300000002052FC7
:0C052F00787FE4F6D8FD758107020576A0
:10038B00BB010CE58229F582E5833AF583E0225027
:10039B0006E92582F8E622BBFE06E92582F8E22271
:0D03AB00E58229F582E5833AF583E493228B
:0E03B800C3E49FFFE49EFEE49DFDE49CFC2256
:0C03C600ECF0A3EDF0A3EEF0A3EFF022AA
:10053B000205BBE493A3F8E493A34003F68001F216
:10054B0008DFF48029E493A3F85407240CC8C333C1
:10055B00C4540F4420C8834004F456800146F6DF90
:10056B00E4800B010204081020408090069CE47E7E
:10057B00019360BCA3FF543F30E509541FFEE49385
:10058B00A360010ECF54C025E060A840B8E493A34C
:10059B00FAE493A3F8E493A3C8C582C8CAC583CA77
:1005AB00F0A3C8C582C8CAC583CADFE9DEE780BE2F
:0106AF00004A
:00000001FF
