:0400030002080000EF
:1000C300438E805389F0758ACD758CD4C28DD2A9A5
:0300D300D28C22AA
:10009A00C2B0C2B3C2B6C2B7C2A0C2A3C2A5C2A6E8
:1000AA001200C3D2AFC3E50994E8E508940340F50A
:0900BA00E4F508F509B2CD80EC73
:03000B000200D61A
:0D00D600C0E00509E50970020508D0E03220
:0300000002000EED
:0C000E00787FE4F6D8FD758109020055EA
:10001A0002009AE493A3F8E493A34003F68001F262
:10002A0008DFF48029E493A3F85407240CC8C333E7
:10003A00C4540F4420C8834004F456800146F6DFB6
:10004A00E4800B0102040810204080900003E47E43
:10005A00019360BCA3FF543F30E509541FFEE493AB
:10006A00A360010ECF54C025E060A840B8E493A372
:10007A00FAE493A3F8E493A3C8C582C8CAC583CA9D
:10008A00F0A3C8C582C8CAC583CADFE9DEE780BE55
:0100070000F8
:00000001FF
