:100093003F065B4F666D7D077F6F777C395E7971B5
:10007900C2A2C2A3C2A41103110374932FF58274FF
:0A008900003EF583E493F58080EC5F
:0B00AF00EF1FAC0670011E4C70F62223
:10000300E4FBFA75900FE590640F60347FE87E039C
:1000130011AFE590640F6028AF90EF24F5601124D1
:10002300FE6013146016240770167A007B0180109B
:100033007A007B02800A7A007B0380047A007B04C7
:100043007590F0E59064F06022AF90EF2450600C5F
:1000530024E0600C24F0600C2470800F740480068C
:1000630074088002740C2BFBE43AFA7FE87E0311D8
:05007300AFAE02AF0377
:010078002265
:030000000200A358
:0C00A300787FE4F6D8FD75810702007933
:00000001FF
