:1000F7003F065B4F666D7D077F6F777C395E797151
:0400030002080000EF
:1000E700D2AFD2A9438901D28C758CFC758A1822AC
:10009A00E4FFFEC2A2C2A3C2A41200E7EF64104E9C
:1000AA007002FEFFE509B4E8F3E508B403EE0FEFCA
:1000BA00AC0670010E1424F7F58274003CF583E453
:0A00CA0093F580E4F508F50980D2F3
:03000B000200D41C
:1000D400C0E0758CFC758A180509E50970020508ED
:0300E400D0E03237
:0300000002000EED
:0C000E00787FE4F6D8FD758109020055EA
:10001A0002009AE493A3F8E493A34003F68001F262
:10002A0008DFF48029E493A3F85407240CC8C333E7
:10003A00C4540F4420C8834004F456800146F6DFB6
:10004A00E4800B0102040810204080900003E47E43
:10005A00019360BCA3FF543F30E509541FFEE493AB
:10006A00A360010ECF54C025E060A840B8E493A372
:10007A00FAE493A3F8E493A3C8C582C8CAC583CA9D
:10008A00F0A3C8C582C8CAC583CADFE9DEE780BE55
:0100070000F8
:00000001FF
